{
  "_format": "hh-sol-artifact-1",
  "contractName": "MentalHealthSurvey",
  "sourceName": "contracts/MentalHealthSurvey.sol",
  "abi": [
    {
      "inputs": [],
      "name": "ZamaProtocolUnsupported",
      "type": "error"
    },
    {
      "anonymous": false,
      "inputs": [
        {
          "indexed": true,
          "internalType": "address",
          "name": "user",
          "type": "address"
        },
        {
          "indexed": false,
          "internalType": "uint256",
          "name": "timestamp",
          "type": "uint256"
        }
      ],
      "name": "StressIndexCalculated",
      "type": "event"
    },
    {
      "anonymous": false,
      "inputs": [
        {
          "indexed": true,
          "internalType": "address",
          "name": "user",
          "type": "address"
        },
        {
          "indexed": false,
          "internalType": "uint256",
          "name": "timestamp",
          "type": "uint256"
        }
      ],
      "name": "SurveySubmitted",
      "type": "event"
    },
    {
      "inputs": [],
      "name": "confidentialProtocolId",
      "outputs": [
        {
          "internalType": "uint256",
          "name": "",
          "type": "uint256"
        }
      ],
      "stateMutability": "view",
      "type": "function"
    },
    {
      "inputs": [],
      "name": "getAllResponses",
      "outputs": [
        {
          "internalType": "euint32",
          "name": "q1",
          "type": "bytes32"
        },
        {
          "internalType": "euint32",
          "name": "q2",
          "type": "bytes32"
        },
        {
          "internalType": "euint32",
          "name": "q3",
          "type": "bytes32"
        },
        {
          "internalType": "euint32",
          "name": "q4",
          "type": "bytes32"
        },
        {
          "internalType": "euint32",
          "name": "q5",
          "type": "bytes32"
        },
        {
          "internalType": "euint32",
          "name": "index",
          "type": "bytes32"
        },
        {
          "internalType": "uint256",
          "name": "time",
          "type": "uint256"
        }
      ],
      "stateMutability": "view",
      "type": "function"
    },
    {
      "inputs": [],
      "name": "getAnxiety",
      "outputs": [
        {
          "internalType": "euint32",
          "name": "",
          "type": "bytes32"
        }
      ],
      "stateMutability": "view",
      "type": "function"
    },
    {
      "inputs": [],
      "name": "getMood",
      "outputs": [
        {
          "internalType": "euint32",
          "name": "",
          "type": "bytes32"
        }
      ],
      "stateMutability": "view",
      "type": "function"
    },
    {
      "inputs": [
        {
          "internalType": "uint256",
          "name": "index",
          "type": "uint256"
        }
      ],
      "name": "getParticipantAtIndex",
      "outputs": [
        {
          "internalType": "address",
          "name": "",
          "type": "address"
        }
      ],
      "stateMutability": "view",
      "type": "function"
    },
    {
      "inputs": [],
      "name": "getSleepQuality",
      "outputs": [
        {
          "internalType": "euint32",
          "name": "",
          "type": "bytes32"
        }
      ],
      "stateMutability": "view",
      "type": "function"
    },
    {
      "inputs": [],
      "name": "getSocialConnection",
      "outputs": [
        {
          "internalType": "euint32",
          "name": "",
          "type": "bytes32"
        }
      ],
      "stateMutability": "view",
      "type": "function"
    },
    {
      "inputs": [],
      "name": "getStressIndex",
      "outputs": [
        {
          "internalType": "euint32",
          "name": "",
          "type": "bytes32"
        }
      ],
      "stateMutability": "view",
      "type": "function"
    },
    {
      "inputs": [],
      "name": "getStressLevel",
      "outputs": [
        {
          "internalType": "euint32",
          "name": "",
          "type": "bytes32"
        }
      ],
      "stateMutability": "view",
      "type": "function"
    },
    {
      "inputs": [],
      "name": "getTimestamp",
      "outputs": [
        {
          "internalType": "uint256",
          "name": "",
          "type": "uint256"
        }
      ],
      "stateMutability": "view",
      "type": "function"
    },
    {
      "inputs": [],
      "name": "getTotalParticipants",
      "outputs": [
        {
          "internalType": "uint256",
          "name": "",
          "type": "uint256"
        }
      ],
      "stateMutability": "view",
      "type": "function"
    },
    {
      "inputs": [],
      "name": "hasSurveyResponse",
      "outputs": [
        {
          "internalType": "bool",
          "name": "",
          "type": "bool"
        }
      ],
      "stateMutability": "view",
      "type": "function"
    },
    {
      "inputs": [
        {
          "internalType": "externalEuint32",
          "name": "_q1",
          "type": "bytes32"
        },
        {
          "internalType": "bytes",
          "name": "_q1Proof",
          "type": "bytes"
        },
        {
          "internalType": "externalEuint32",
          "name": "_q2",
          "type": "bytes32"
        },
        {
          "internalType": "bytes",
          "name": "_q2Proof",
          "type": "bytes"
        },
        {
          "internalType": "externalEuint32",
          "name": "_q3",
          "type": "bytes32"
        },
        {
          "internalType": "bytes",
          "name": "_q3Proof",
          "type": "bytes"
        },
        {
          "internalType": "externalEuint32",
          "name": "_q4",
          "type": "bytes32"
        },
        {
          "internalType": "bytes",
          "name": "_q4Proof",
          "type": "bytes"
        },
        {
          "internalType": "externalEuint32",
          "name": "_q5",
          "type": "bytes32"
        },
        {
          "internalType": "bytes",
          "name": "_q5Proof",
          "type": "bytes"
        }
      ],
      "name": "submitSurvey",
      "outputs": [],
      "stateMutability": "nonpayable",
      "type": "function"
    }
  ],
  "bytecode": "0x6080604052346101d257610011610209565b50466001036100ee57610022610209565b5061002b6101d6565b5f81525f60208201525f60408201525b80517f9e7b61f58c47dc699ac88507c4f5bb9f121c03808c5676a8078fe583e464970080546001600160a01b039283166001600160a01b03199182161790915560208301517f9e7b61f58c47dc699ac88507c4f5bb9f121c03808c5676a8078fe583e464970180549184169183169190911790556040928301517f9e7b61f58c47dc699ac88507c4f5bb9f121c03808c5676a8078fe583e4649702805491909316911617905551610e6d90816102248239f35b4662aa36a70361015957610100610209565b506101096101d6565b73f0ffdc93b7e186bc2f8cb3daa75d86d1930a433d81527392c920834ec8941d2c77d188936e1f7a6f49c127602082015273be0e383937d564d7ff0bc3b46c51f0bf8d5c311a604082015261003b565b46617a69036101c35761016a610209565b506101736101d6565b7350157cffd6bbfa2dece204a89ec419c23ef5755d815273e3a9105a3a932253a70f126eb1e3b589c643dd24602082015273be0e383937d564d7ff0bc3b46c51f0bf8d5c311a604082015261003b565b6373cac13b60e01b5f5260045ffd5b5f80fd5b60405190606082016001600160401b038111838210176101f557604052565b634e487b7160e01b5f52604160045260245ffd5b6102116101d6565b905f82525f60208301525f604083015256fe6080806040526004361015610012575f80fd5b5f3560e01c90816305d428dd146109ae57508063188ec3561461096d5780631d6d31d71461092c5780632963c4ed146108ad57806351eb45541461082757806385d4b0f1146107e95780638927b030146107c75780639417240d146107865780639d0c139714610745578063a90cc44514610728578063c8d3b885146106e7578063d088f007146100f05763f24a96c7146100ab575f80fd5b346100ec575f3660031901126100ec57335f5260016020526100d360ff60405f205416610a04565b335f525f6020526020600160405f200154604051908152f35b5f80fd5b346100ec576101403660031901126100ec5760243567ffffffffffffffff81116100ec576101229036906004016109d6565b9060643567ffffffffffffffff81116100ec576101439036906004016109d6565b929060a43567ffffffffffffffff81116100ec576101659036906004016109d6565b92909160e43567ffffffffffffffff81116100ec576101889036906004016109d6565b9390916101243567ffffffffffffffff81116100ec576101ac9036906004016109d6565b97909436906101ba92610a9e565b6101c690600435610b13565b9736906101d292610a9e565b6101de90604435610b13565b9436906101ea92610a9e565b6101f690608435610b13565b92369061020292610a9e565b61020e9060c435610b13565b93369061021a92610a9e565b6102279061010435610b13565b905f516020610e415f395f51905f52546001600160a01b0316604051808092639cd07acb60e01b8252600482016004905260248201600490525a925f604492602095f1801561060c575f906106b3575b610282915086610cb9565b5f60206001600160a01b035f516020610e415f395f51905f525416604460405180948193639cd07acb60e01b835260066004840152600460248401525af1801561060c575f9061067f575b6102d8915085610cb9565b905f60206001600160a01b035f516020610e415f395f51905f525416604460405180948193639cd07acb60e01b835260056004840152600460248401525af1801561060c575f9061064b575b61032f915084610cb9565b915f60206001600160a01b035f516020610e415f395f51905f525416604460405180948193639cd07acb60e01b835260076004840152600460248401525af1801561060c575f90610617575b610386915088610cb9565b905f60206001600160a01b035f516020610e415f395f51905f525416604460405180948193639cd07acb60e01b835260036004840152600460248401525af190811561060c575f916105d2575b506103fa946103f56103f594936103ef846103f595508b610cb9565b96610d3e565b610d3e565b93335f52600160205260ff60405f20541615610590575b6040519561010087019287841067ffffffffffffffff85111761057c5761051b61051b9661051b61051b946105229b61051b98604052818152600760208201918583528d60408201908982528d606084018d81526080850191825260a0850192835260c085019342855260e086019760018952335f525f60205260405f2096518755516001870155516002860155516003850155516004840155516005830155516006820155019051151560ff80198354169116179055335f52600160205260405f20600160ff198254161790556104e93082610dc3565b6104f33084610dc3565b6104fd3086610dc3565b6105073088610dc3565b610511308a610dc3565b61051b308c610dc3565b3390610dc3565b6040514281527fe0761bd9d1832e3fe90645c845f1ddcf3cdcc55a5413982e0fac841c3ec6c62f60203392a26040514281527f9524b04b151ed8a6bf0ea86ef89be94d9bcb6c7986740e92f55ead9d0478f8e460203392a2005b634e487b7160e01b5f52604160045260245ffd5b6002546801000000000000000081101561057c578060016105b49201600255610a50565b81549060031b906001600160a01b0333831b921b1916179055610411565b929190506020833d602011610604575b816105ef60209383610a7c565b810103126100ec5791519091906103fa6103d3565b3d91506105e2565b6040513d5f823e3d90fd5b506020813d602011610643575b8161063160209383610a7c565b810103126100ec57610386905161037b565b3d9150610624565b506020813d602011610677575b8161066560209383610a7c565b810103126100ec5761032f9051610324565b3d9150610658565b506020813d6020116106ab575b8161069960209383610a7c565b810103126100ec576102d890516102cd565b3d915061068c565b506020813d6020116106df575b816106cd60209383610a7c565b810103126100ec576102829051610277565b3d91506106c0565b346100ec575f3660031901126100ec57335f52600160205261070f60ff60405f205416610a04565b335f525f6020526020600560405f200154604051908152f35b346100ec575f3660031901126100ec576020600254604051908152f35b346100ec575f3660031901126100ec57335f52600160205261076d60ff60405f205416610a04565b335f525f6020526020600260405f200154604051908152f35b346100ec575f3660031901126100ec57335f5260016020526107ae60ff60405f205416610a04565b335f525f6020526020600360405f200154604051908152f35b346100ec575f3660031901126100ec5760206107e1610ae4565b604051908152f35b346100ec575f3660031901126100ec57335f52600160205261081160ff60405f205416610a04565b335f525f602052602060405f2054604051908152f35b346100ec5760203660031901126100ec57600435600254811015610868576001600160a01b03610858602092610a50565b90549060031b1c16604051908152f35b60405162461bcd60e51b815260206004820152601360248201527f496e646578206f7574206f6620626f756e6473000000000000000000000000006044820152606490fd5b346100ec575f3660031901126100ec57335f5260016020526108d560ff60405f205416610a04565b335f525f60205260e060405f20805490600181015490600281015460038201546004830154916006600585015494015494604051968752602087015260408601526060850152608084015260a083015260c0820152f35b346100ec575f3660031901126100ec57335f52600160205261095460ff60405f205416610a04565b335f525f6020526020600460405f200154604051908152f35b346100ec575f3660031901126100ec57335f52600160205261099560ff60405f205416610a04565b335f525f6020526020600660405f200154604051908152f35b346100ec575f3660031901126100ec57602090335f526001825260ff60405f20541615158152f35b9181601f840112156100ec5782359167ffffffffffffffff83116100ec57602083818601950101116100ec57565b15610a0b57565b60405162461bcd60e51b815260206004820152601860248201527f4e6f2073757276657920726573706f6e736520666f756e6400000000000000006044820152606490fd5b600254811015610a685760025f5260205f2001905f90565b634e487b7160e01b5f52603260045260245ffd5b90601f8019910116810190811067ffffffffffffffff82111761057c57604052565b92919267ffffffffffffffff821161057c5760405191610ac8601f8201601f191660200184610a7c565b8294818452818301116100ec578281602093845f960137010152565b46600103610af157600190565b4662aa36a703610b015761271190565b617a694614610b0e575f90565b5f1990565b60209182916001600160a01b035f516020610e415f395f51905f525416905f60a460405180978196829563045fc19560e11b84526004840152336024840152608060448401528051918291826084860152018484015e818101830184905260046064830152601f01601f191681010301925af190811561060c575f91610c0a575b506001600160a01b037f9e7b61f58c47dc699ac88507c4f5bb9f121c03808c5676a8078fe583e46497005416803b156100ec57604051630f8e573b60e21b815260048101839052336024820152905f908290604490829084905af1801561060c57610bfd575090565b5f610c0791610a7c565b90565b90506020813d602011610c34575b81610c2560209383610a7c565b810103126100ec57515f610b94565b3d9150610c18565b5f60206001600160a01b035f516020610e415f395f51905f525416604460405180948193639cd07acb60e01b8352816004840152600460248401525af190811561060c575f91610c8a575090565b90506020813d602011610cb1575b81610ca560209383610a7c565b810103126100ec575190565b3d9150610c98565b908115610d2e575b8015610d1c575b60209060646001600160a01b035f516020610e415f395f51905f525416935f6040519586948593630afe14ad60e31b8552600485015260248401528160448401525af190811561060c575f91610c8a575090565b506020610d27610c3c565b9050610cc8565b9050610d38610c3c565b90610cc1565b908115610db3575b8015610da1575b60209060646001600160a01b035f516020610e415f395f51905f525416935f604051958694859363022f65e760e31b8552600485015260248401528160448401525af190811561060c575f91610c8a575090565b506020610dac610c3c565b9050610d4d565b9050610dbd610c3c565b90610d46565b6001600160a01b037f9e7b61f58c47dc699ac88507c4f5bb9f121c03808c5676a8078fe583e4649700541691823b156100ec57604051635ca4b5b160e11b815260048101929092526001600160a01b03166024820152905f908290604490829084905af1801561060c57610e345750565b5f610e3e91610a7c565b56fe9e7b61f58c47dc699ac88507c4f5bb9f121c03808c5676a8078fe583e4649701a164736f6c634300081b000a",
  "linkReferences": {},
  "deployedLinkReferences": {}
}