{
  "_format": "hh-sol-artifact-1",
  "contractName": "SimpleTest",
  "sourceName": "contracts/SimpleTest.sol",
  "abi": [
    {
      "inputs": [
        {
          "internalType": "address",
          "name": "",
          "type": "address"
        }
      ],
      "name": "hasSurvey",
      "outputs": [
        {
          "internalType": "bool",
          "name": "",
          "type": "bool"
        }
      ],
      "stateMutability": "view",
      "type": "function"
    },
    {
      "inputs": [],
      "name": "setSurvey",
      "outputs": [],
      "stateMutability": "nonpayable",
      "type": "function"
    },
    {
      "inputs": [],
      "name": "test",
      "outputs": [
        {
          "internalType": "bool",
          "name": "",
          "type": "bool"
        }
      ],
      "stateMutability": "view",
      "type": "function"
    }
  ],
  "bytecode": "0x6080806040523460135760e1908160188239f35b5f80fdfe60808060405260043610156011575f80fd5b5f3560e01c9081633466c9b214608e5750806388f067e71460665763f8a8fd6d146039575f80fd5b346062575f366003190112606257335f525f602052602060ff60405f2054166040519015158152f35b5f80fd5b346062575f366003190112606257335f525f60205260405f20600160ff198254161790555f80f35b3460625760203660031901126062576004359073ffffffffffffffffffffffffffffffffffffffff82168092036062576020915f525f825260ff60405f20541615158152f3fea164736f6c634300081b000a",
  "linkReferences": {},
  "deployedLinkReferences": {}
}